:100000005FC0CDC176C075C074C073C072C071C00E
:1000100070C06FC06EC06DC06CC06BC06AC069C07C
:1000200068C067C066C0090222000101008019098A
:100030000400000103000000092101010001222148
:10004000000705810308000A1201100100000008E2
:10005000C016DC05000101020001180375006400F0
:100060006B004B006F006E00740072006F006C003C
:100070006C0028036600720065006400720069006D
:100080006B006F006C006F006600730073006F0000
:100090006E002E0063006F006D000403090405016B
:1000A0000904A1010930150026FF0075089501819A
:1000B000020931150026FF00750895018102C00074
:1000C00011241FBECFEDCDBF10E0A0E6B0E0E0E010
:1000D000F7E002C005900D92A236B107D9F710E003
:1000E000A2E6B0E001C01D92AF39B107E1F7B4D28A
:1000F00005C386CFCF93C62F2091710024FF07C080
:100100002091720038E823272093720003C02AE56B
:10011000209371002C2FFC01A3E7B0E081918D9317
:1001200021501216DCF383E790E06C2F34D1CC5FC2
:10013000C0937100CF910895CF93DF938091820097
:10014000835087FDB0C020917F0090917E009D324A
:1001500009F0A7C0883009F0A4C08CE090E0821BB1
:100160009109EC01CA57DF4F23EC209366002AE582
:1001700020936000109262002881207619F0CE0151
:1001800048D286C03A8110926F002981222331F42F
:10019000109270002FE630E082E076C0253019F42E
:1001A000309383006EC0263009F055C0FC01E8573B
:1001B000FF4F208187579F4FFC018081813041F4A0
:1001C00088E490E0909381008093800082E13FC0BA
:1001D000823041F486E290E0909381008093800029
:1001E00082E235C08330F1F4222341F48AE990E0C1
:1001F000909381008093800084E029C0213041F4F5
:1002000082E790E0909381008093800088E21FC095
:100210002230E1F48AE590E09093810080938000A1
:1002200088E115C0813241F488E390E09093810029
:100230008093800089E00BC0823241F48EE990E027
:10024000909381008093800081E201C080E090E47F
:10025000909362001DC0283069F0293019F4309362
:1002600085000FC02A3049F02B3059F48BE480937D
:10027000720007C025E830E002C02FE630E081E0E0
:1002800003C02FE630E080E03093810020938000AF
:100290009F81992321F49E81981708F4892F8093D8
:1002A0006100109282008091600084FF45C08091BF
:1002B00061008F3F09F440C0C82F893008F0C8E0C2
:1002C0008C1B809361008091660098E88927809359
:1002D0006600CC2329F180918000909181002091CB
:1002E000620026FF0AC0FC012C2FA7E6B0E0349183
:1002F0003D9331962150D9F708C0DC012C2FE7E659
:10030000F0E03D9131932150E1F72C2F215030E066
:100310002F5F3F4F280F391F3093810020938000BB
:1003200087E690E06C2F37D0CC5FCC3019F08FEFA0
:1003300080936100C093600084E190B39C7031F4BD
:100340008150D9F71092830010927D00DF91CF91F8
:10035000089585B7826085BF8BB780648BBF8BE4BF
:10036000809372008AE5809371000895A82FB92FB9
:1003700080E090E041E050EA609530E009C02D91C6
:1003800082279795879510F084279527305EC8F3CC
:100390006F5FA8F30895EADF8D939D930895CF933F
:1003A000CFB7CF93C395839BE9F7839B09C0839B0A
:1003B00007C0839B05C0839B03C0839B01C0A3C070
:1003C000DF93C0917F00DD27CA57DF4F839B02C0B8
:1003D000DF91EBCF2F930F931F9300B32FEF03FB0E
:1003E00020F94F933F9310B34FEF012703FB21F9FF
:1003F0003BE031C04E7F012F10B3216028C0102F89
:100400004D7F2260000000B329C04B7F2460012F84
:10041000000010B32BC010B3477F28602AC04F7E66
:1004200000B320612CC04F7D10B320622FC04F7BE2
:1004300000B3206432C0422700B349934FEF00005D
:10044000102713FB20F910B31C70C9F1297F91F21A
:10045000012703FB21F900B3237F89F2315058F1C2
:10046000102713FB22F910B3277E79F2012703FB33
:1004700023F92F7C81F200B3102713FB24F92F7985
:1004800071F200C010B3012703FB25F92F7359F255
:1004900000C000B3102713FB26F9223040F200C041
:1004A00010B3012703FB27F9243028F64F77206883
:1004B00010B30000F9CF10E41ABF002719C03B5059
:1004C0003195C31BD04010E41ABF0881033CF9F0FA
:1004D0000B34E9F020917D001981110F1213EDCF3B
:1004E0004A81441F093641F10D3211F0013E29F7CE
:1004F000009384003F914F911F910F912F91DF91B5
:10050000CAB7C6FD4FCFCF91CFBFCF9118952091DD
:100510008400222379F310918200112369F534308D
:100520006AF13093820020937E0010917F003BE0BF
:10053000311B30937F0022C0009182000130E4F42F
:100540000AE54F7049F43091600034FD19C0009302
:100550006000C6E6D0E018C03091710034FD10C0D4
:1005600000937100C2E7D0E00FC02795A8F4515066
:10057000A9F4220F0000F9CF4AE503C042ED01C003
:10058000432FC4E1D0E032E011B31C60939A11BB59
:1005900002B320E41CE05F93012756E002BB2795DD
:1005A00020F4515021F4220FF9CF012756E000002A
:1005B0003B5A02BBD0F2279528F4515029F4220F60
:1005C0000000F9CF012756E0279502BB20F45150D7
:1005D00021F4220FF9CF012756E02991332302BBE2
:1005E00021F6037F10918300110FC651D04002BB4A
:1005F00011F010937D0010E41ABF086011B3137F4F
:10060000402F437F5F9100C000C002BB11BB42BBC3
:1006100071CFFC0183E690E090938100809380008D
:1006200080818076803291F48181813089F08230BE
:1006300041F485E690E0909381008093800081E012
:1006400008958A3039F483818093650080E00895AD
:1006500082E0089580E0089510929E008FEF88BB9D
:1006600083E782BB10929C0010929D002EE088E1EF
:1006700090E00FB6F894A89581BD0FBE21BD69DE4C
:100680008B9A80E007C0A895E7EBFBE03197F1F784
:1006900000C000008150B9F78B987894C1E0A8950C
:1006A0004BDD96B380919C00981739F0C0939E0063
:1006B00086B380939C008093630080B390E083773F
:1006C000907020919D0030E08217930741F0C09315
:1006D0009E0080B3837780939D0080936400809117
:1006E000710084FFDCCF80919E008823C1F283E6F5
:1006F00090E062E0FFDC10929E00D1CFF894FFCF33
:020700005AFF9E
:00000001FF
